:100000000C9434000C943E000C943E000C943E0082
:100010000C943E000C943E000C943E000C943E0068
:100020000C943E000C943E000C943E000C943E0058
:100030000C943E000C943E000C943E000C943E0048
:100040000C943E000C943E000C943E000C943E0038
:100050000C943E000C943E000C943E000C943E0028
:100060000C943E000C943E0011241FBECFEFD8E04C
:10007000DEBFCDBF0E948D000C94AC010C9400003B
:100080008FE188B98FE085B92FEF81EE94E02150A0
:1000900080409040E1F700C0000018B815B82FEF7D
:1000A00081EE94E0215080409040E1F700C00000D4
:1000B00008952FEF2BB99FE198B98FE085B93FEFF5
:1000C00049E658E1315040405040E1F700C000009F
:1000D00018B815B81BB83FEF49E658E13150404019
:1000E0005040E1F700C000002BB998B985B98FEFF7
:1000F00099E628E1815090402040E1F700C00000DF
:1001000018B815B81BB83FEF49E658E131504040E8
:100110005040E1F700C000000895CF93DF931F9295
:10012000CDB7DEB78FEF8AB98FE187B98FE084B999
:1001300018B815B830E8832E912CCC24CA94D12C51
:1001400000E110E0EE24E394F12C22E029831BB8B7
:10015000A12CB12C2BB1C4010A2C02C09595879516
:100160000A94E2F7822B8BB90E9440004FEFA41A49
:10017000B40A58E0A516B10469F7A12CB12C2BB133
:10018000C6010A2C02C0959587950A94E2F782234E
:100190008BB90E9440008FEFA81AB80A98E0A91600
:1001A000B10469F72981213019F031E03983CFCFCB
:1001B0001BB83FEF43ED50E3315040405040E1F772
:1001C00000C000000E9459008FEF8BB942E0BB24B1
:1001D000B39480E1F6E029E0A22E6FEF7FE7EFE332
:1001E00020E030E090E0DC01022E02C0B595A7953A
:1001F0000A94E2F7A8B9AFEFB3EC59E0A150B040D0
:100200005040E1F700C000002F5F3F4F253031051F
:1002100051F720E030E08B2D90E0DC01022E01C090
:10022000AA0F0A94EAF7A8B9AFEFB3EC59E0A150CE
:10023000B0405040E1F700C000002F5F3F4F253035
:10024000310559F718B880E090E0B8B0D801082E11
:1002500002C0B595A7950A94E2F79701082E01C050
:10026000220F0A94EAF72A2B2B2928B925B12F2728
:1002700025B9AFEFB3EC29E0A150B0402040E1F741
:1002800000C0000025B12A2525B93FEF53ECA9E0B5
:1002900031505040A040E1F700C00000019683308B
:1002A000910599F668B978B9E8B918B88CE193E086
:1002B000B92E413011F041E093CF0E94590080E007
:1002C00090E045B19701082E01C0220F0A94EAF789
:1002D000242B25B9BFEFE3ECF9E0B150E040F0404A
:1002E000E1F700C0000001968430910551F780E0ED
:1002F00090E048B19801082E02C0359527950A94E0
:10030000E2F7242B28B92FEF33EC49E0215030409D
:100310004040E1F700C0000001968530910549F7A3
:1003200080E090E04BB19401082E02C035952795EE
:100330000A94E2F7242B2BB95FEFA3ECB9E05150FC
:10034000A040B040E1F700C0000001968830910560
:0C03500049F70E945900F9CEF894FFCF45
:00000001FF
