:100000000C943A000C9457000C9457000C94570031
:100010000C9457000C9457000C9457000C94570004
:100020000C9457000C9457000C9457000C945700F4
:100030000C9457000C9457000C9457000C945700E4
:100040000C9457000C9457000C9457000C945700D4
:100050000C9457000C9457000C9457000C945700C4
:100060000C9457000C9457006364696E6F7073753D
:1000700078585B0011241FBECFEFD8E0DEBFCDBFA4
:100080001DE0A0E0B1E0E2ECFDE102C005900D92C0
:10009000A23EB107D9F72DE0A2EEBDE001C01D924E
:1000A000AC3EB207E1F70E9475000C94DF0E0C9491
:1000B00000009091C00095FFFCCF8093C60008958A
:1000C0008091C00087FFFCCF8091C60090E008952A
:1000D00026E02093C2001092C0009093C500809348
:1000E000C40088E18093C1000895CF93DF93CDB71A
:1000F000DEB7C754D1090FB6F894DEBF0FBECDBF2F
:1001000087E690E00E94680060E070E089E590E09A
:100110000E9417079093E50D8093E40D60E670E070
:1001200080E090E00E9417079093E30D8093E20D2A
:100130008FEF8AB987B984B91E0123E4220E311CDE
:1001400060EE862E67E0962E6E013CE3C30ED11C56
:100150008E010F5B1F4F86E091E09F938F930E946B
:1001600062078CE491E09F938F930E9462073F9215
:100170002F9287EB91E09F938F930E94A807D10164
:100180008C910FB6F894DEBF0FBECDBF8333F1F074
:10019000813309F013C32AEB422E24E0522E30EEB5
:1001A000632E37E0732E4E01F9E08F0E911C0DE0A7
:1001B00015E07E012BE1E20EF11C43E5C42E45E083
:1001C000D42E57EBA52E51E0B52EFEC08BE6A7EB43
:1001D000EA2EA1E0FA2EBFEB4B2EB3E05B2E9BEF95
:1001E000692E93E0792E8B36F1F78BEB91E09F939C
:1001F0008F930E9462079F928F920E946207DF9204
:10020000CF928FEF8F938BEF8F938AE092E09F9343
:100210008F930E9462071F921F921F921F921F923C
:100220001F92CE01C9969F938F9387E292E09F938E
:100230008F930E9462078EA11F928F938DA11F92B0
:100240008F938CA11F928F93CE0181969F938F9352
:1002500085E692E09F938F930E946207D8011196E2
:100260008C9111978F938C918F93CE01C6969F930B
:100270008F9380EA92E09F938F930E9462070FB65C
:10028000F894DEBF0FBECDBF88858F938F818F938B
:10029000CE018A969F938F938E818F938D818F93BA
:1002A000CE018D969F938F938C818F938B818F93AB
:1002B000CE01C0969F938F938A818F9389818F936C
:1002C000CE01C3969F938F9382ED92E09F938F937D
:1002D0000E94620781E593E09F938F930E946207DB
:1002E0003F922F92FF92EF920E94A8070FB6F894C8
:1002F000DEBF0FBECDBFF4EDAF2EF6E0BF2EAEE5F4
:10030000B3E0BF93AF930E9462079F928F920E94C7
:1003100062075F924F920E9462073F922F92FF9274
:10032000EF920E94A807D1018C910FB6F894DEBF1E
:100330000FBECDBF813341F4FFE4FEAB2EE42FAB03
:1003400030E238AF5F9ADBCF823339F48FE48EAB83
:1003500096E49FAB98AF5F98D2CF8333B1F47F928E
:100360006F920E946207AAE6B4E0BF93AF930E9427
:1003700062071F930F93BF92AF920E94A8070FB618
:10038000F894DEBF0FBECDBFBACF843321F480E333
:10039000D1018C932ACF853309F0B1CFF1011082BE
:1003A000DACE823309F499C0833309F099C083E02F
:1003B00090E08230910509F499C08330910509F4E9
:1003C00049C1009709F08FC05F924F920E94620767
:1003D0007F926F920E9462078E851F928F938D8508
:1003E0001F928F938C851F928F939F928F921F9352
:1003F0000F930E94620788A11F928F938F8D1F9287
:100400008F938E8D1F928F93FF92EF92DF92CF92F8
:100410000E9462073F922F92BF92AF920E94A8075C
:10042000D1018C910FB6F894DEBF0FBECDBF8133E2
:1004300009F0B7CF4CEAE42E45E0F42E50EEC52E7D
:1004400057E0D52E62E0A62E66E0B62E77EB872E1B
:1004500071E0972E09E316E0E0E96E2EE6E07E2ECD
:100460002E01FFE04F0E511C03C08233F1F442987D
:10047000FF92EF920E946207DF92CF920E94620782
:10048000BF92AF920E9462073F922F929F928F92EB
:100490000E94A807D1018C910FB6F894DEBF0FBE61
:1004A000CDBF813311F7429AE3CF833309F71F930E
:1004B0000F930E9462077F926F920E9462075F9281
:1004C0004F92A3EDB6E0BF93AF930E94A8070FB67B
:1004D000F894DEBF0FBECDBFCBCF82E090E069CFF6
:1004E00080E090E066CF019709F4A4CF37EBE32ECC
:1004F00031E0F32E6E013DE0C30ED11C5E018CE0B5
:10050000A80EB11CA7EDB6E0BF93AF930E9462079F
:1005100080EE97E09F938F930E9462078AE397E0B3
:100520009F938F930E9462073F922F92FF92EF92C8
:100530000E94A807D1018C910FB6F894DEBF0FBEC0
:10054000CDBF813341F48FE489878EE48A8780E2CE
:100550008B87439AD7CF823339F48FE4898786E437
:100560008A878B874398CECF833309F066C001E535
:1005700019E087E5482E89E0582E9BEC692E99E01A
:10058000792E28E9822E28E0922EA4E7B7E0BF93C7
:10059000AF930E9462078EA11F928F938DA11F922D
:1005A0008F938CA11F928F93A4E1B8E0BF93AF9378
:1005B0000E9462073F922F92FF92EF920E94A8073B
:1005C000D1018C910FB6F894DEBF0FBECDBF813341
:1005D00069F49F928F920E946207AAE0B9E0BF93EC
:1005E000AF930E946207BF92AF9219C0823339F471
:1005F0005F924F920E9462077F926F920CC083338A
:10060000C1F4A4E1BAE0BF93AF930E946207A7E8E8
:10061000BAE0BF93AF930E946207DF92CF921F931D
:100620000F930E94A8070FB6F894DEBF0FBECDBF90
:10063000ACCF843309F0A9CF65CF8453823008F45E
:1006400061CF8FEC9AE09F938F930E9462070F9087
:100650000F9058CFB7EBEB2EB1E0FB2E6E013FE1D0
:10066000C30ED11C5E018EE1A80EB11CA7EDB6E051
:10067000BF93AF930E94620780EE97E09F938F93A2
:100680000E9462078AE397E09F938F930E9462071C
:100690003F922F92FF92EF920E94A807D1018C9176
:1006A0000FB6F894DEBF0FBECDBF813341F48FE4A7
:1006B0008B8F8EE48C8F80E28D8F449AD7CF8233DC
:1006C00039F48FE48B8F86E48C8F8D8F4498CECF56
:1006D000833309F066C001E519E0E7E54E2EE9E055
:1006E0005E2EFBEC6F2EF9E07F2EA8E98A2EA8E0A3
:1006F0009A2EA4E7B7E0BF93AF930E9462078EA142
:100700001F928F938DA11F928F938CA11F928F9315
:10071000A4E1B8E0BF93AF930E9462073F922F928B
:10072000FF92EF920E94A807D1018C910FB6F89426
:10073000DEBF0FBECDBF813369F49F928F920E94BE
:100740006207AAE0B9E0BF93AF930E946207BF922D
:10075000AF9219C0823339F45F924F920E946207C0
:100760007F926F920CC08333C1F4A4E1BAE0BF93CF
:10077000AF930E946207A7E8BAE0BF93AF930E94CD
:100780006207DF92CF921F930F930E94A8070FB6C4
:10079000F894DEBF0FBECDBFACCF843309F0A9CF34
:1007A00065CF8453823008F461CF8FEC9AE09F9339
:1007B0008F930E9462070F900F9058CF823309F0F9
:1007C000CACC40E050E022EF3AE06E0187E2C80E6A
:1007D000D11C2E0195E1490E511C63E7662E6BE09A
:1007E000762E4E01AFE08A0E911C00EC1BE07E01DC
:1007F000B9E0EB0EF11C77EBA72E71E0B72E411597
:10080000510509F087C03F932F9327962FAF279765
:1008100028963FAF289725964FAF259726965FAF2E
:1008200026970E946207A0EEB7E0BF93AF930E94A5
:10083000620721968FAD21978F938FAD8F93DF92B3
:10084000CF92A2E4BBE0BF93AF930E9462078A8D70
:100850001F928F93898D1F928F93888D1F928F93F4
:100860005F924F927F926F920E9462078C891F92D3
:100870008F938B891F928F938A891F928F939F9258
:100880008F921F930F930E94620788A11F928F93EC
:100890008D851F928F938C851F928F93FF92EF927D
:1008A000ADE0BCE0BF93AF930E9462070FB6F8942F
:1008B000DEBF0FBECDBF3F922F92BF92AF920E947C
:1008C000A807D1018C910F900F900F900F90279651
:1008D0002FAD279728963FAD289725964FAD2597A2
:1008E00026965FAD2697813399F0823309F470C064
:1008F000833309F499C2843309F424C1853319F48C
:1009000045E050E07CCF863029F446E050E077CFD8
:1009100041E050E04130510509F05CC016E6C12EBF
:100920001CE0D12E00EEA02E07E0B02E87EB882E23
:1009300081E0982E9FEFE92E9CE0F92E0AE019E065
:100940003E01BFE36B0E711C24ED422E26E0522EB9
:10095000DF92CF920E946207BF92AF920E9462071D
:1009600085EC9CE00E9478073F922F929F928F9295
:100970000E94A807F10180810FB6F894DEBF0FBE78
:10098000CDBF813339F43FE43FA38EE488A790E2E2
:1009900099A7DECF823331F4AFE4AFA3B6E4B8A7B2
:1009A000B9A7D6CF8333A1F6FF92EF920E946207D8
:1009B0001F930F930E9462077F926F925F924F92F4
:1009C0000E94A8070FB6F894DEBF0FBECDBFC0CF00
:1009D00042E050E04230510509F0B6C0B7EBEB2ED3
:1009E000B1E0FB2E6E01F9E1CF0ED11C5E0128E1D2
:1009F000A20EB11CACE6BDE0BF93AF930E946207AC
:100A000080EE97E09F938F930E9462078AE397E0BE
:100A10009F938F930E9462073F922F92FF92EF92D3
:100A20000E94A807D1018C910FB6F894DEBF0FBECB
:100A3000CDBF813341F48FE48D8B8EE48E8B80E2C9
:100A40008F8B449AD7CF823339F48FE48D8B86E431
:100A50008E8B8F8B4498CECF833309F066C001E52F
:100A600019E0E7E54E2EE9E05E2EFBEC6F2EF9E093
:100A70007F2EA8E98A2EA8E09A2EA4E7B7E0BF93BC
:100A8000AF930E9462078EA11F928F938DA11F9238
:100A90008F938CA11F928F93A4E1B8E0BF93AF9383
:100AA0000E9462073F922F92FF92EF920E94A80746
:100AB000D1018C910FB6F894DEBF0FBECDBF81334C
:100AC00069F49F928F920E946207AAE0B9E0BF93F7
:100AD000AF930E946207BF92AF9219C0823339F47C
:100AE0005F924F920E9462077F926F920CC0833395
:100AF000C1F4A4E1BAE0BF93AF930E946207A7E8F4
:100B0000BAE0BF93AF930E946207DF92CF921F9328
:100B10000F930E94A8070FB6F894DEBF0FBECDBF9B
:100B2000ACCF843309F0A9CF65CF8453823008F469
:100B300061CF8FEC9AE09F938F930E9462070F9092
:100B40000F9058CF44E050E04330510509F0B4C055
:100B500077EBE72E71E0F72E6E0133E1C30ED11C67
:100B60005E0182E1A80EB11CACE6BDE0BF93AF937D
:100B70000E94620780EE97E09F938F930E94620726
:100B80008AE397E09F938F930E9462073F922F9290
:100B9000FF92EF920E94A807D1018C910FB6F894B2
:100BA000DEBF0FBECDBF813341F48FE48F878EE46B
:100BB000888B80E2898B449AD7CF823339F48FE4D3
:100BC0008F8786E4888B898B4498CECF833309F056
:100BD00066C001E519E047E5442E49E0542E5BEC80
:100BE000652E59E0752E68E9862E68E0962EA4E7FA
:100BF000B7E0BF93AF930E9462078EA11F928F93BD
:100C00008DA11F928F938CA11F928F93A4E1B8E0C6
:100C1000BF93AF930E9462073F922F92FF92EF9291
:100C20000E94A807D1018C910FB6F894DEBF0FBEC9
:100C3000CDBF813369F49F928F920E946207AAE030
:100C4000B9E0BF93AF930E946207BF92AF9219C001
:100C5000823339F45F924F920E9462077F926F92C3
:100C60000CC08333C1F4A4E1BAE0BF93AF930E94F8
:100C70006207A7E8BAE0BF93AF930E946207DF92D2
:100C8000CF921F930F930E94A8070FB6F894DEBF70
:100C90000FBECDBFACCF843309F0A9CF65CF84534D
:100CA000823008F461CF8FEC9AE09F938F930E947B
:100CB00062070F900F9058CF4430510509F09FCD37
:100CC00037EBE32E31E0F32E6E013DE0C30ED11C75
:100CD0005E018CE0A80EB11CACE6BDE0BF93AF9303
:100CE0000E94620780EE97E09F938F930E946207B5
:100CF0008AE397E09F938F930E9462073F922F921F
:100D0000FF92EF920E94A807D1018C910FB6F89440
:100D1000DEBF0FBECDBF813341F48FE489878EE4FF
:100D20008A8780E28B87449AD7CF823339F48FE465
:100D3000898786E48A878B874498CECF833309F0EE
:100D400066C001E519E087E5482E89E0582E9BEC46
:100D5000692E99E0792E28E9822E28E0922EA4E7C8
:100D6000B7E0BF93AF930E9462078EA11F928F934B
:100D70008DA11F928F938CA11F928F93A4E1B8E055
:100D8000BF93AF930E9462073F922F92FF92EF9220
:100D90000E94A807D1018C910FB6F894DEBF0FBE58
:100DA000CDBF813369F49F928F920E946207AAE0BF
:100DB000B9E0BF93AF930E946207BF92AF9219C090
:100DC000823339F45F924F920E9462077F926F9252
:100DD0000CC08333C1F4A4E1BAE0BF93AF930E9487
:100DE0006207A7E8BAE0BF93AF930E946207DF9261
:100DF000CF921F930F930E94A8070FB6F894DEBFFF
:100E00000FBECDBFACCF843309F0A9CF65CF8453DB
:100E1000823008F461CF8FEC9AE09F938F930E9409
:100E200062070F900F9058CF43E050E0D3CD0F935F
:100E30001F93CF93DF93009731F46115710519F477
:100E400080E090E03AC08B01EC016EE070E081E060
:100E500090E00E943E0CFC01892B91F380E8838393
:100E60000115110571F01387028781E88383809152
:100E7000E20D9091E30D892B21F4F093E30DE093C3
:100E8000E20D2097C9F0D187C08783818260838378
:100E90008091E40D9091E50D892B71F4F093E50DAF
:100EA000E093E40D8091E60D9091E70D892B21F4FC
:100EB000F093E70DE093E60DCF01DF91CF911F9105
:100EC0000F910895A0E0B0E0E8E6F7E00C94B80ECA
:100ED000AE014B5F5F4FFA0161917191AF0180915B
:100EE000E40D9091E50D0E94BE07E2E00C94D40E53
:100EF0000F931F93CF93DF93E091E40DF091E50DF5
:100F0000238121FF1BC08C01D0E0C0E0F80181915A
:100F10008F016091E40D7091E50DDB011896ED9164
:100F2000FC911997882331F00995892B79F3DFEF2C
:100F3000CFEFECCF8AE00995892B19F08FEF9FEF67
:100F400002C08D2F9C2FDF91CF911F910F9108959B
:100F5000A0E0B0E0EEEAF7E00C94B80EAE014B5F13
:100F60005F4FFA0161917191AF018091E20D909113
:100F7000E30D0E94100BE2E00C94D40EACE0B0E064
:100F8000E4ECF7E00C94A80E7C016B018A01FC01F3
:100F900017821682838181FFBDC1CE0101964C016B
:100FA000F7019381F60193FD859193FF81916F0184
:100FB000882309F4ABC1853239F493FD859193FF01
:100FC00081916F01853229F4B70190E00E94F60DFE
:100FD000E7CF512C312C20E02032A0F48B3269F085
:100FE00030F4803259F0833269F420612CC08D32A4
:100FF00039F0803339F4216026C02260246023C098
:10100000286021C027FD27C030ED380F3A3078F432
:1010100026FF06C0FAE05F9E300D1124532E13C048
:101020008AE0389E300D1124332E20620CC08E329F
:1010300021F426FD6BC1206406C08C3611F42068B3
:1010400002C0883641F4F60193FD859193FF8191AA
:101050006F018111C1CF982F9F7D9554933028F453
:101060000C5F1F4FFFE3F9830DC0833631F08337E8
:1010700071F0833509F05BC022C0F801808189835B
:101080000E5F1F4F44244394512C540115C0380166
:10109000F2E06F0E711CF801A080B18026FF03C042
:1010A000652D70E002C06FEF7FEFC5012C870E94B5
:1010B000AD0D2C0183012C852F77222E17C038010E
:1010C000F2E06F0E711CF801A080B18026FF03C012
:1010D000652D70E002C06FEF7FEFC5012C870E9485
:1010E0009B0D2C012C852068222E830123FC1BC024
:1010F000832D90E048165906B0F4B70180E290E0E5
:101100000E94F60D3A94F4CFF50127FC859127FE55
:1011100081915F01B70190E00E94F60D31103A9481
:10112000F1E04F1A51084114510471F7E5C08436BB
:1011300011F0893639F5F80127FF07C06081718108
:10114000828193810C5F1F4F08C060817181072EDF
:10115000000C880B990B0E5F1F4F2F76722E97FF96
:1011600009C090958095709561957F4F8F4F9F4FE7
:101170002068722E2AE030E0A4010E94470EA82EBB
:10118000A81844C0853729F42F7EB22E2AE030E01B
:1011900025C0F22FF97FBF2E8F36C1F018F48835A5
:1011A00079F0B4C0803719F0883721F0AFC02F2F05
:1011B0002061B22EB4FE0DC08B2D8460B82E09C004
:1011C00024FF0AC09F2F9660B92E06C028E030E0A9
:1011D00005C020E130E002C020E132E0F801B7FEB6
:1011E00007C060817181828193810C5F1F4F06C0AF
:1011F0006081718180E090E00E5F1F4FA4010E942A
:10120000470EA82EA818FB2DFF777F2E76FE0BC069
:10121000372D3E7FA51450F474FE0AC072FC08C03E
:10122000372D3E7E05C0BA2C372D03C0BA2C01C025
:10123000B52C34FF0DC0FE01EA0DF11D8081803315
:1012400011F4397E09C032FF06C0B394B39404C0D0
:10125000832F867809F0B39433FD13C030FF06C0A6
:101260005A2CB31418F4530C5B18B32CB31468F451
:10127000B70180E290E03C870E94F60DB3943C8574
:10128000F5CFB31410F43B1801C0312C34FF12C059
:10129000B70180E390E03C870E94F60D3C8532FF69
:1012A00017C031FD03C088E790E002C088E590E0F8
:1012B000B7010CC0832F867859F031FF02C08BE252
:1012C00001C080E237FD8DE2B70190E00E94F60D8B
:1012D000A51438F4B70180E390E00E94F60D5A940B
:1012E000F7CFAA94F401EA0DF11D8081B70190E0D7
:1012F0000E94F60DA110F5CF332009F451CEB701AD
:1013000080E290E00E94F60D3A94F6CFF7018681D4
:10131000978102C08FEF9FEF2C96E2E10C94C40EF0
:1013200020FD09C0FC0123FD05C022FF02C073831C
:10133000628351834083089544FD10C046FD10C070
:10134000DB01FC01AA0FBB1FEE1FFF1F1094D1F79A
:101350006A0F7B1F8E1F9F1F31E003C033E001C067
:1013600034E0660F771F881F991F3150D1F7620F45
:10137000711D811D911D08950F931F93CF93DF93CE
:101380008C01C8010E94B80DEC0197FD08C00E94B5
:10139000870D892BB1F7B801CE010E942E0ECE0128
:1013A000DF91CF911F910F910895A1E0B0E0EBED97
:1013B000F9E00C94AE0E8C01C62E7A0129830E94AE
:1013C000B80DAC01552729814B32510521F04D3222
:1013D000510569F42068CA94C11002C080E076C04B
:1013E000C80129830E94B80D298197FDF7CF322FBC
:1013F0003D7FD32E322F307349F5803339F5BB242E
:10140000BA94BC0C09F44EC0C80129830E94B80DDF
:10141000298197FD47C0382F3F7D383569F48D2DE0
:101420008264D82ECA94CA94CC20E1F1C8010E94EB
:10143000B80D97FF0BC036C026FF04C02D2D2260CB
:10144000D22E03C03D2D3261D32ECB2C812C912C7A
:10145000540120ED280F283080F0D4FE04C0B801DC
:101460000E942E0E1CC02A3040F0D6FEF8CF2F7DF1
:101470003FEE320F363098F727504D2DC501B4019D
:101480000E949C094B015C018D2D8260D82ECA946C
:10149000CC2059F0C8010E94B80D97FFDACFD1FCDB
:1014A00004C09CCF812C912C5401D7FE08C0B0946D
:1014B000A09490948094811C911CA11CB11C2D2D92
:1014C000B501A401C7010E94900981E02196ECE0DA
:1014D0000C94CA0EA1E2B0E0E0E7FAE00C94AC0E86
:1014E0005C017A01CE0101966C0180E2F601119255
:1014F0008A95E9F7F501838040E050E0912C712C4A
:1015000070E0A1E0B0E0F90183FC859183FE819158
:101510008F01982F9F01811103C080E090E07CC073
:101520008E3519F44115510549F1E72FF0E0E41724
:10153000F5073CF48D3559F18D3219F4772001F11E
:1015400003C0711001C0982E892F869586958695C7
:101550008601080F111D892F87703D0101C0660C9F
:101560008A95EAF7F801808186298083991559F0D8
:10157000991510F49F5FE8CF9150E6CF71E004C059
:101580007724739401C0712C4F5F5F4FBCCF7720DD
:1015900019F08E8180628E83711103C09924939417
:1015A00016C0F6019E012F5D3F4F8081809581938B
:1015B000E217F307D1F7F2CFE114F10429F0F701B4
:1015C0008083C70101967C016150912CF9F0C5011F
:1015D00069A30E94B80D69A197FD16C0282F269512
:1015E00026952695F601E20FF11D208130E0AC0131
:1015F0004770552702C0359527954A95E2F720FD9B
:10160000DBCFB5010E942E0E911087CFE114F104BB
:1016100011F0F7011082C801A196EEE00C94C80EFB
:101620004F925F927F928F929F92AF92BF92CF9292
:10163000DF92EF92FF920F931F93CF93DF931F924E
:10164000CDB7DEB76C012B015A01FC01178216825F
:10165000712CF601F380F201F3FC8591F3FE819188
:10166000382F2F01882309F4F3C090E039830E94BA
:10167000870D3981892B21F0C6010E94BC09E9CF71
:10168000353241F4F201F3FC3591F3FE31912F0133
:10169000353269F4C60139830E94B80D398197FD4E
:1016A000D5C03817B1F2B6010E942E0ED1C03A3221
:1016B00039F4F3FC3591F3FE31912F0151E001C073
:1016C00050E0420110E020ED230F2A3090F45260E8
:1016D000612F70E080E090E040E259830E949C0915
:1016E000162FF401F3FC3591F3FE31914F0159812E
:1016F000EACF052F232F240151FF03C0111102C08F
:10170000A7C01FEF383619F03C3659F011C0F4016C
:10171000F3FC2591F3FE21912F01283649F4052F82
:1017200008600460F201F3FC2591F3FE21912F0182
:10173000222309F48DC0622F70E088E690E02983AF
:101740000E94900D2981892B09F482C000FD07C0F9
:10175000F501E080F180C50102965C0102C0E12C38
:10176000F12C2E3651F4F6014681578160E070E08D
:10177000202FC7010E9490096CCF233691F401FFFE
:1017800011E0C6010E94B80D97FD60C0E114F1049C
:1017900029F0F7018083C70101967C01115089F778
:1017A00051C02B3559F49201A701612FC6010E9447
:1017B0006A0A2C01892B09F045C03FC0C601298364
:1017C0000E94BC09298197FD41C02F3659F128F4A8
:1017D000243631F1293649F127C0233769F02537FE
:1017E000F9F022C0E114F10429F0F7018082C70169
:1017F00001967C01115071F0C6010E94B80D4C0198
:1018000097FD08C00E94870D892B61F3B601C401C2
:101810000E942E0EE114F104A9F0F701108212C00B
:10182000006203C0006101C00064202FA701612F86
:10183000C6010E94D509811105C0F601838180731C
:1018400029F406C000FD05CF739403CF772019F06B
:10185000872D90E002C08FEF9FEF0F90DF91CF9127
:101860001F910F91FF90EF90DF90CF90BF90AF90BE
:101870009F908F907F905F904F9008950F931F934C
:10188000CF93DF93869F8001879F100D969F100D49
:101890001124C8010E945A0CEC01009729F0A801FC
:1018A00060E070E00E94A60DCE01DF91CF911F9104
:1018B0000F910895CF93DF938230910510F482E069
:1018C00090E0E091EA0DF091EB0D20E030E0C0E017
:1018D000D0E0309711F14081518148175907C0F08D
:1018E0004817590761F482819381209719F09B83EF
:1018F0008A832BC09093EB0D8093EA0D26C02115AF
:10190000310519F04217530718F49A01BE01DF019F
:10191000EF010280F381E02DDCCF2115310509F1C3
:10192000281B390B2430310590F412968D919C912F
:1019300013976115710521F0FB019383828304C025
:101940009093EB0D8093EA0DFD01329644C0FD01AA
:10195000E20FF31F81939193225031092D933C9311
:101960003AC02091E80D3091E90D232B41F42091EC
:101970000201309103013093E90D2093E80D20918D
:101980000001309101012115310541F42DB73EB719
:101990004091040150910501241B350BE091E80DA5
:1019A000F091E90DE217F307A0F42E1B3F0B281767
:1019B000390778F0AC014E5F5F4F2417350748F0C8
:1019C0004E0F5F1F5093E90D4093E80D8193919363
:1019D00002C0E0E0F0E0CF01DF91CF9108950F93D6
:1019E0001F93CF93DF93009709F48CC0FC013297CB
:1019F000138212820091EA0D1091EB0D0115110571
:101A000081F420813181820F931F2091E80D309164
:101A1000E90D2817390779F5F093E90DE093E80D02
:101A200071C0D80140E050E0AE17BF0750F41296E5
:101A30002D913C911397AD012115310509F1D90183
:101A4000F3CF9D01DA013383228360817181860F98
:101A5000971F8217930769F4EC0128813981260FBB
:101A6000371F2E5F3F4F318320838A819B81938371
:101A70008283452B29F4F093EB0DE093EA0D42C0ED
:101A80001396FC93EE931297ED01499159919E01A3
:101A9000240F351FE217F30771F480819181840FC1
:101AA000951F029611969C938E9382819381139633
:101AB0009C938E931297E0E0F0E0D80112968D91FE
:101AC0009C911397009719F0F8018C01F6CF8D9136
:101AD0009C9198012E5F3F4F820F931F2091E80D3C
:101AE0003091E90D2817390769F4309729F41092DD
:101AF000EB0D1092EA0D02C0138212821093E90DD1
:101B00000093E80DDF91CF911F910F9108959111EE
:101B10000C94A50E803219F089508550C8F70895AD
:101B2000FC010590061621F00020D9F7C0010895A8
:101B30003197CF010895FC0105906150704001106C
:101B4000D8F7809590958E0F9F1F0895DC0101C0F6
:101B50006D9341505040E0F70895FC016150704092
:101B600001900110D8F7809590958E0F9F1F0895D2
:101B7000CF93DF93EC012B8120FF33C026FF0AC0F7
:101B80002F7B2B838E819F8101969F838E838A81F9
:101B900090E029C022FF0FC0E881F9818081082EE2
:101BA000000C990B009719F420622B831AC0319610
:101BB000F983E8830EC0EA85FB85099597FF09C084
:101BC0002B81019611F080E201C080E1822B8B8392
:101BD00008C02E813F812F5F3F4F3F832E8399277F
:101BE00002C08FEF9FEFDF91CF9108950F931F9366
:101BF000CF93DF93FB01238121FD03C08FEF9FEF84
:101C000028C022FF16C046815781248135814217A2
:101C1000530744F4A081B1819D012F5F3F4F318371
:101C200020838C93268137812F5F3F4F3783268314
:101C300010C0EB01092F182F0084F185E02D0995C4
:101C4000892BE1F68E819F8101969F838E83812F60
:101C5000902FDF91CF911F910F910895FB01238168
:101C600020FF12C026FD10C08F3F3FEF930761F0A9
:101C700082832F7D2064238326813781215031097F
:101C800037832683992708958FEF9FEF0895FA01F0
:101C9000AA27283051F1203181F1E8946F936E7FAB
:101CA0006E5F7F4F8F4F9F4FAF4FB1E03ED0B4E09C
:101CB0003CD0670F781F891F9A1FA11D680F791FDD
:101CC0008A1F911DA11D6A0F711D811D911DA11DEE
:101CD00020D009F468943F912AE0269F11243019FE
:101CE000305D3193DEF6CF010895462F4770405D99
:101CF0004193B3E00FD0C9F7F6CF462F4F70405D48
:101D00004A3318F0495D31FD4052419302D0A9F7A2
:101D1000EACFB4E0A6959795879577956795BA959C
:101D2000C9F700976105710508959B01AC010A2E62
:101D300006945795479537952795BA95C9F7620F39
:101D4000731F841F951FA01D089599278827089544
:101D50002F923F924F925F926F927F928F929F92BB
:101D6000AF92BF92CF92DF92EF92FF920F931F93A9
:101D7000CF93DF93CDB7DEB7CA1BDB0B0FB6F8945A
:101D8000DEBF0FBECDBF09942A88398848885F849A
:101D90006E847D848C849B84AA84B984C884DF800B
:101DA000EE80FD800C811B81AA81B981CE0FD11DEF
:101DB0000FB6F894DEBF0FBECDBFED010895F894C5
:021DC000FFCF53
:101DC2000000EC0D20002A2A2A2A2A2A2A2A2A2A54
:101DD2002A2A2A2A2A2A2A2A2A2A2A0A0D4D792036
:101DE200486F6D6520436F6E74726F6C2050616E28
:101DF200656C0A0D2A2A2A2A2A2A2A2A2A2A2A2A01
:101E02002A2A2A2A2A2A2A2A2A0A0D00547970659D
:101E1200206E756D626572206F6E20746865206C2D
:101E220065667420616E6420507265737320656EFE
:101E320074657220746F2073656C6563740A0D316A
:101E42002E204C6976696E6720526F6F6D0A0D32D3
:101E52002E2042617468726F6F6D0A0D332E4B69CA
:101E6200746368656E0A0D342E204D617374657259
:101E7200204265640A0D00202563002A2A2A2A2AA4
:101E82002A2A2A2A2A2A2A2A2A2A2A2A2A2A2A2AB0
:101E92000A0D4D7920486F6D6520436F6E74726F25
:101EA2006C2050616E656C2D204B69746368656EA1
:101EB2000A0D2A2A2A2A2A2A2A2A2A2A2A2A2A2ABD
:101EC2002A2A2A2A2A2A2A0A0D00312E2046726933
:101ED2006467653A205374617475733A20256420EF
:101EE200632025730A0D00322E204D6963726F77CD
:101EF200617665204F76656E3A205374617475730E
:101F02003A20257320506F7765723A202564205459
:101F1200696D653A202564203A202564204D4D3AAA
:101F220053530A0D00332E204B69746368656E208B
:101F32004C6967687423313A205374617475733A3B
:101F42002025732C20436F6C6F723A20523A202561
:101F52006420473A20256420423A2025640A0D0075
:101F6200342E204761726261676520446973706F25
:101F720073616C20556E69743A2053746174757381
:101F82003A2025732C2053706565643A2025640A33
:101F92000D00352E20436F6F6B20546F70203A2056
:101FA2004F6E65203A205374617475733A2025731D
:101FB2002048656174203A2025642C54776F203ABA
:101FC200205374617475733A2025732048656174D7
:101FD200203A2025642C5468726565203A20537497
:101FE200617475733A2025732048656174203A2024
:101FF20025642C466F7572203A2053746174757390
:102002003A2025732048656174203A2025640A0D20
:1020120000362E20476F204261636B0A0D002A2A88
:102022002A2A2A2A2A2A2A2A2A2A2A2A2A2A2A2A0E
:102032002A2A2A0A0D4D7920486F6D6520436F6E5A
:1020420074726F6C2050616E656C2D204B697463E5
:1020520068656E2D2047617262616765204469730D
:10206200706F73616C0A0D2A2A2A2A2A2A2A2A2ABE
:102072002A2A2A2A2A2A2A2A2A2A2A2A0A0D00311E
:102082002E204F4E200A0D322E204F46460A0D3387
:102092002E537065656420436F6E74726F6C0A0D07
:1020A200342E20476F204261636B0A0D352E204D7E
:1020B20061696E204D656E750A0D002A2A2A2A2A48
:1020C2002A2A2A2A2A2A2A2A2A2A2A2A2A2A2A2A6E
:1020D2000A0D4D7920486F6D6520436F6E74726FE3
:1020E2006C2050616E656C2D204B69746368656E5F
:1020F2002D204761726261676520446973706F7356
:10210200616C2D537065656420436F6E74726F6CE1
:102112000A0D2A2A2A2A2A2A2A2A2A2A2A2A2A2A5A
:102122002A2A2A2A2A2A2A0A0D00456E7465722052
:1021320020537065656420302D31300A0D50726570
:10214200737320656E746572207768656E20646FA4
:102152006E65202320476F6573206261636B207474
:102162006F204761726261676520446973706F73A3
:10217200616C204D656E750A0D002A2A2A2A2A2AC8
:102182002A2A2A2A2A2A2A2A2A2A2A2A2A2A2A0ACD
:102192000D4D7920486F6D6520436F6E74726F6CC0
:1021A2002050616E656C2D204C6976696E672052F5
:1021B2006F6F6D0A0D2A2A2A2A2A2A2A2A2A2A2AED
:1021C2002A2A2A2A2A2A2A2A2A2A0A0D00312E20D3
:1021D20054560A0D322E204C6976696E6720526F72
:1021E2006F6D204C6967687423313A2053746174AF
:1021F20075733A2025732C20436F6C6F723A20520C
:102202003A20256420473A20256420423A2025645A
:102212000A0D00332E204C6976696E6720526F6F6B
:102222006D204C6967687423323A20537461747567
:10223200733A2025732C20436F6C6F723A20523A06
:1022420020256420473A20256420423A2025640A4A
:102252000D342E20476F204261636B0A0D352E200C
:102262004D61696E204D656E750A0D002A2A2A2A73
:102272002A2A2A2A2A2A2A2A2A2A2A2A2A2A2A2ABC
:102282002A0A0D4D7920486F6D6520436F6E747276
:102292006F6C2050616E656C2D204C6976696E679B
:1022A20020526F6F6D2D54560A0D2A2A2A2A2A2A85
:1022B2002A2A2A2A2A2A2A2A2A2A2A2A2A2A2A0A9C
:1022C2000D00312E204F4E0A0D322E204F46460A67
:1022D2000D332E20566F6C756D6520436F6E7472D0
:1022E2006F6C0A0D342E2050726F6772616D20433D
:1022F2006F6E74726F6C0A0D002A2A2A2A2A2A2A01
:102302002A2A2A2A2A2A2A2A2A2A2A2A2A2A0A0D68
:102312004D7920486F6D6520436F6E74726F6C202B
:1023220050616E656C2D204C6976696E6720526F24
:102332006F6D202D54560A0D2A2A2A2A2A2A2A2A61
:102342002A2A2A2A2A2A2A2A2A2A2A2A2A0A0D0052
:10235200456E74657220566F6C756D6520302D3137
:1023620030300A0D507265737320656E7465722089
:102372007768656E20646F6E65202320476F6573F2
:10238200206261636B20746F205456204D656E7518
:102392000A0D00202564002A2A2A2A2A2A2A2A2A01
:1023A2002A2A2A2A2A2A2A2A2A2A2A2A0A0D4D7956
:1023B20020486F6D6520436F6E74726F6C205061A0
:1023C2006E656C2D204C6976696E6720526F6F6D59
:1023D2002D4B69746368656E204C6967687423319C
:1023E2000A0D2A2A2A2A2A2A2A2A2A2A2A2A2A2A88
:1023F2002A2A2A2A2A2A2A0A0D00312E204F4E2062
:102402000A0D322E204F46460A0D332E4C6967685C
:102412007420436F6C6F720A0D342E20476F204276
:1024220061636B0A0D352E204D61696E204D656E1C
:10243200750A0D002A2A2A2A2A2A2A2A2A2A2A2A16
:102442002A2A2A2A2A2A2A2A2A0A0D4D7920486F5C
:102452006D6520436F6E74726F6C2050616E656C97
:102462002D204B69746368656E2D4B6974636865D2
:102472006E204C696768742331202D204C6967688F
:102482007420436F6C6F720A0D2A2A2A2A2A2A2A7A
:102492002A2A2A2A2A2A2A2A2A2A2A2A2A2A0A0DD7
:1024A20054797065206E756D626572206F6E20744E
:1024B2006865206C65667420616E64205072657375
:1024C2007320656E74657220746F2073656C65632A
:1024D200740A0D00312E204368616E6765205265D3
:1024E20064203A2043757272656E742056616C7571
:1024F200652025640A0D312E204368616E676520D0
:10250200477265656E203A2043757272656E74205B
:1025120056616C75652025640A0D312E2043686171
:102522006E676520426C7565203A2043757272654C
:102532006E742056616C75652025640A0D342E2058
:10254200476F204261636B0A0D352E204D61696E23
:10255200204D656E750A0D002A2A2A2A2A2A2A2A5D
:102562002A2A2A2A2A2A2A2A2A2A2A2A2A0A0D4DE3
:102572007920486F6D6520436F6E74726F6C2050C6
:10258200616E656C2D204B69746368656E2D4B69B5
:10259200746368656E204C696768742331202D204E
:1025A2004C6967687420436F6C6F722D20526564AA
:1025B2000A0D2A2A2A2A2A2A2A2A2A2A2A2A2A2AB6
:1025C2002A2A2A2A2A2A2A0A0D00456E74657220AE
:1025D2005265642056616C756520302D3235350A9E
:1025E2000D507265737320656E746572207768652D
:1025F2006E20646F6E65202320476F6573206261D1
:10260200636B20746F20524742204D656E750A0D30
:10261200002025686875002A2A2A2A2A2A2A2A2AB4
:102622002A2A2A2A2A2A2A2A2A2A2A2A0A0D4D79D3
:1026320020486F6D6520436F6E74726F6C2050611D
:102642006E656C2D204B69746368656E2D4B6974E1
:102652006368656E204C696768742331202D204CB5
:102662006967687420436F6C6F722D2047726565CD
:102672006E0A0D2A2A2A2A2A2A2A2A2A2A2A2A2AB1
:102682002A2A2A2A2A2A2A2A0A0D00456E746572E3
:1026920020477265656E2056616C756520302D325B
:1026A20035350A0D507265737320656E746572203C
:1026B2007768656E20646F6E65202320476F6573AF
:1026C200206261636B20746F20524742204D656E19
:1026D200750A0D002A2A2A2A2A2A2A2A2A2A2A2A74
:1026E2002A2A2A2A2A2A2A2A2A0A0D4D7920486FBA
:1026F2006D6520436F6E74726F6C2050616E656CF5
:102702002D204B69746368656E2D4B69746368652F
:102712006E204C696768742331202D204C696768EC
:102722007420436F6C6F722D20426C75650A0D2AFE
:102732002A2A2A2A2A2A2A2A2A2A2A2A2A2A2A2AF7
:102742002A2A2A2A0A0D00456E74657220426C7587
:10275200652056616C756520302D3235350A0D5075
:102762007265737320656E746572207768656E207A
:10277200646F6E65202320476F6573206261636B0F
:1027820020746F20524742204D656E750A0D00502D
:102792006C6561736520456E746572206120766197
:1027A2006C696420436F6D6D616E642E2E2E2E0A4D
:1027B2000D002A2A2A2A2A2A2A2A2A2A2A2A2A2ABE
:1027C2002A2A2A2A2A2A2A0A0D4D7920486F6D655B
:1027D20020436F6E74726F6C2050616E656C2D2099
:1027E20042617468726F6F6D0A0D2A2A2A2A2A2A98
:1027F2002A2A2A2A2A2A2A2A2A2A2A2A2A2A2A0A57
:102802000D00312E20576174657220486561746530
:1028120072203A205374617475733A2025732054E0
:10282200656D7065726174757265203A2025642049
:102832000A0D00322E204C6976696E6720526F6F46
:102842006D204C6967687423313A20537461747542
:10285200733A2025732C20436F6C6F723A20523AE0
:1028620020256420473A20256420423A2025640A24
:102872000D342E20476F204261636B0A0D352E0006
:10288200332E204C6976696E6720526F6F6D204C33
:102892006967687423323A205374617475733A20FD
:1028A20025732C20436F6C6F723A20523A202564B4
:1028B20020473A20256420423A2025640A0D342E0E
:1028C20020476F204261636B0A0D352E00332E20A4
:1028D2004C6976696E6720526F6F6D204C6967682C
:1028E2007423333A205374617475733A2025732C20
:1028F20020436F6C6F723A20523A20256420473A87
:1029020020256420423A2025640A0D342E20476F88
:10291200204261636B0A0D352E204D61696E204D98
:10292200656E750A0D002A2A2A2A2A2A2A2A2A2AA2
:102932002A2A2A2A2A2A2A2A2A2A2A0A0D4D7920CA
:10294200486F6D6520436F6E74726F6C2050616EBC
:10295200656C2D2042617468726F6F6D202D205757
:1029620061746572204865617465720A0D2A2A2AAB
:102972002A2A2A2A2A2A2A2A2A2A2A2A2A2A2A2AB5
:102982002A2A0A0D00312E204F4E0A0D322E204FD8
:1029920046460A0D332E2054656D7065726174755A
:1029A20072650A0D342E2020476F204261636B0A44
:1029B2000D352E204D61696E204D656E750D002A14
:1029C2002A2A2A2A2A2A2A2A2A2A2A2A2A2A2A2A65
:1029D2002A2A2A2A0A0D4D7920486F6D6520436FF5
:1029E2006E74726F6C2050616E656C2D2042617442
:1029F20068726F6F6D202D20576174657220486573
:102A020061746572202D2054656D706572617475F4
:102A120072650A0D2A2A2A2A2A2A2A2A2A2A2A2ACE
:102A22002A2A2A2A2A2A2A2A2A0A0D002A2A2A2A6B
:102A32002A2A2A2A2A2A2A2A2A2A2A2A2A2A2A2AF4
:102A42002A0A0D4D7920486F6D6520436F6E7472AE
:102A52006F6C2050616E656C2D2042617468726FDC
:102A62006F6D202D20576174657220486561746511
:102A720072202D204C6976696E6720526F6F6D202F
:102A8200204C6967687423310A0D2A2A2A2A2A2AC5
:102A92002A2A2A2A2A2A2A2A2A2A2A2A2A2A2A0AB4
:022AA2000D0025
:00000001FF
